{
  "_format": "hh-sol-artifact-1",
  "contractName": "CrowdFunding",
  "sourceName": "contracts/crowdfunding.sol",
  "abi": [
    {
      "inputs": [
        {
          "internalType": "uint256",
          "name": "",
          "type": "uint256"
        }
      ],
      "name": "Campaigns",
      "outputs": [
        {
          "internalType": "address",
          "name": "owner",
          "type": "address"
        },
        {
          "internalType": "string",
          "name": "title",
          "type": "string"
        },
        {
          "internalType": "string",
          "name": "description",
          "type": "string"
        },
        {
          "internalType": "uint256",
          "name": "target",
          "type": "uint256"
        },
        {
          "internalType": "uint256",
          "name": "deadline",
          "type": "uint256"
        },
        {
          "internalType": "uint256",
          "name": "fundsRaised",
          "type": "uint256"
        }
      ],
      "stateMutability": "view",
      "type": "function"
    },
    {
      "inputs": [
        {
          "internalType": "address",
          "name": "_owner",
          "type": "address"
        },
        {
          "internalType": "string",
          "name": "_title",
          "type": "string"
        },
        {
          "internalType": "string",
          "name": "_description",
          "type": "string"
        },
        {
          "internalType": "uint256",
          "name": "_target",
          "type": "uint256"
        },
        {
          "internalType": "uint256",
          "name": "_deadline",
          "type": "uint256"
        }
      ],
      "name": "CreateCampaign",
      "outputs": [
        {
          "internalType": "uint256",
          "name": "",
          "type": "uint256"
        }
      ],
      "stateMutability": "nonpayable",
      "type": "function"
    },
    {
      "inputs": [
        {
          "internalType": "uint256",
          "name": "_id",
          "type": "uint256"
        }
      ],
      "name": "Donation",
      "outputs": [],
      "stateMutability": "payable",
      "type": "function"
    },
    {
      "inputs": [],
      "name": "GetCampaign",
      "outputs": [
        {
          "components": [
            {
              "internalType": "address",
              "name": "owner",
              "type": "address"
            },
            {
              "internalType": "string",
              "name": "title",
              "type": "string"
            },
            {
              "internalType": "string",
              "name": "description",
              "type": "string"
            },
            {
              "internalType": "uint256",
              "name": "target",
              "type": "uint256"
            },
            {
              "internalType": "uint256",
              "name": "deadline",
              "type": "uint256"
            },
            {
              "internalType": "uint256",
              "name": "fundsRaised",
              "type": "uint256"
            },
            {
              "internalType": "address[]",
              "name": "donators",
              "type": "address[]"
            },
            {
              "internalType": "uint256[]",
              "name": "donations",
              "type": "uint256[]"
            }
          ],
          "internalType": "struct CrowdFunding.Campaign[]",
          "name": "",
          "type": "tuple[]"
        }
      ],
      "stateMutability": "view",
      "type": "function"
    },
    {
      "inputs": [
        {
          "internalType": "uint256",
          "name": "_id",
          "type": "uint256"
        }
      ],
      "name": "GetDonatorInfo",
      "outputs": [
        {
          "internalType": "address[]",
          "name": "",
          "type": "address[]"
        },
        {
          "internalType": "uint256[]",
          "name": "",
          "type": "uint256[]"
        }
      ],
      "stateMutability": "view",
      "type": "function"
    },
    {
      "inputs": [],
      "name": "numberOfCampaigns",
      "outputs": [
        {
          "internalType": "uint256",
          "name": "",
          "type": "uint256"
        }
      ],
      "stateMutability": "view",
      "type": "function"
    }
  ],
  "bytecode": "0x60806040526000805534801561001457600080fd5b50610d54806100246000396000f3fe6080604052600436106100555760003560e01c806307ca140d1461005a5780634013be10146100835780634ad6d3cd146100b557806372f5b46b146100ca578063c83f9623146100ea578063f19a1f2f1461010c575b600080fd5b34801561006657600080fd5b5061007060005481565b6040519081526020015b60405180910390f35b34801561008f57600080fd5b506100a361009e3660046107ba565b61013a565b60405161007a96959493929190610819565b6100c86100c33660046107ba565b61028a565b005b3480156100d657600080fd5b506100706100e5366004610911565b61034c565b3480156100f657600080fd5b506100ff6103d6565b60405161007a9190610a19565b34801561011857600080fd5b5061012c6101273660046107ba565b6106e9565b60405161007a929190610b0a565b6001602081905260009182526040909120805491810180546001600160a01b039093169261016790610b6a565b80601f016020809104026020016040519081016040528092919081815260200182805461019390610b6a565b80156101e05780601f106101b5576101008083540402835291602001916101e0565b820191906000526020600020905b8154815290600101906020018083116101c357829003601f168201915b5050505050908060020180546101f590610b6a565b80601f016020809104026020016040519081016040528092919081815260200182805461022190610b6a565b801561026e5780601f106102435761010080835404028352916020019161026e565b820191906000526020600020905b81548152906001019060200180831161025157829003601f168201915b5050505050908060030154908060040154908060050154905086565b600081815260016020818152604080842060068101805480860182559086528386200180546001600160a01b031916331790556007810180549485018155855291842034930183905581549051929391926001600160a01b039091169084908381818185875af1925050503d8060008114610321576040519150601f19603f3d011682016040523d82523d6000602084013e610326565b606091505b505090508015610346578282600501546103409190610bb4565b60058301555b50505050565b600080548152600160208190526040822080546001600160a01b0319166001600160a01b0389161781559081016103838782610c1c565b50600281016103928682610c1c565b506003810184905560048101839055600060058201819055805490806103b783610cdc565b919050555060016000546103cb9190610cf5565b979650505050505050565b60606000805467ffffffffffffffff8111156103f4576103f461086e565b60405190808252806020026020018201604052801561047657816020015b61046360405180610100016040528060006001600160a01b03168152602001606081526020016060815260200160008152602001600081526020016000815260200160608152602001606081525090565b8152602001906001900390816104125790505b50905060005b6000548110156106e3576000818152600160208181526040928390208351610100810190945280546001600160a01b0316845291820180549293928492840191906104c690610b6a565b80601f01602080910402602001604051908101604052809291908181526020018280546104f290610b6a565b801561053f5780601f106105145761010080835404028352916020019161053f565b820191906000526020600020905b81548152906001019060200180831161052257829003601f168201915b5050505050815260200160028201805461055890610b6a565b80601f016020809104026020016040519081016040528092919081815260200182805461058490610b6a565b80156105d15780601f106105a6576101008083540402835291602001916105d1565b820191906000526020600020905b8154815290600101906020018083116105b457829003601f168201915b505050505081526020016003820154815260200160048201548152602001600582015481526020016006820180548060200260200160405190810160405280929190818152602001828054801561065157602002820191906000526020600020905b81546001600160a01b03168152600190910190602001808311610633575b50505050508152602001600782018054806020026020016040519081016040528092919081815260200182805480156106a957602002820191906000526020600020905b815481526020019060010190808311610695575b5050505050815250508383815181106106c4576106c4610d08565b60200260200101819052505080806106db90610cdc565b91505061047c565b50919050565b60008181526001602090815260409182902060068101805484518185028101850190955280855260609485949293600701929091849183018282801561075857602002820191906000526020600020905b81546001600160a01b0316815260019091019060200180831161073a575b50505050509150808054806020026020016040519081016040528092919081815260200182805480156107aa57602002820191906000526020600020905b815481526020019060010190808311610796575b5050505050905091509150915091565b6000602082840312156107cc57600080fd5b5035919050565b6000815180845260005b818110156107f9576020818501810151868301820152016107dd565b506000602082860101526020601f19601f83011685010191505092915050565b6001600160a01b038716815260c06020820181905260009061083d908301886107d3565b828103604084015261084f81886107d3565b60608401969096525050608081019290925260a0909101529392505050565b634e487b7160e01b600052604160045260246000fd5b600082601f83011261089557600080fd5b813567ffffffffffffffff808211156108b0576108b061086e565b604051601f8301601f19908116603f011681019082821181831017156108d8576108d861086e565b816040528381528660208588010111156108f157600080fd5b836020870160208301376000602085830101528094505050505092915050565b600080600080600060a0868803121561092957600080fd5b85356001600160a01b038116811461094057600080fd5b9450602086013567ffffffffffffffff8082111561095d57600080fd5b61096989838a01610884565b9550604088013591508082111561097f57600080fd5b5061098c88828901610884565b9598949750949560608101359550608001359392505050565b600081518084526020808501945080840160005b838110156109de5781516001600160a01b0316875295820195908201906001016109b9565b509495945050505050565b600081518084526020808501945080840160005b838110156109de578151875295820195908201906001016109fd565b60006020808301818452808551808352604092508286019150828160051b87010184880160005b83811015610afc57888303603f19018552815180516001600160a01b0316845261010088820151818a870152610a78828701826107d3565b9150508782015185820389870152610a9082826107d3565b606084810151908801526080808501519088015260a0808501519088015260c080850151888303828a01529193509150610aca83826109a5565b9250505060e08083015192508582038187015250610ae881836109e9565b968901969450505090860190600101610a40565b509098975050505050505050565b604080825283519082018190526000906020906060840190828701845b82811015610b4c5781516001600160a01b031684529284019290840190600101610b27565b50505083810382850152610b6081866109e9565b9695505050505050565b600181811c90821680610b7e57607f821691505b6020821081036106e357634e487b7160e01b600052602260045260246000fd5b634e487b7160e01b600052601160045260246000fd5b80820180821115610bc757610bc7610b9e565b92915050565b601f821115610c1757600081815260208120601f850160051c81016020861015610bf45750805b601f850160051c820191505b81811015610c1357828155600101610c00565b5050505b505050565b815167ffffffffffffffff811115610c3657610c3661086e565b610c4a81610c448454610b6a565b84610bcd565b602080601f831160018114610c7f5760008415610c675750858301515b600019600386901b1c1916600185901b178555610c13565b600085815260208120601f198616915b82811015610cae57888601518255948401946001909101908401610c8f565b5085821015610ccc5787850151600019600388901b60f8161c191681555b5050505050600190811b01905550565b600060018201610cee57610cee610b9e565b5060010190565b81810381811115610bc757610bc7610b9e565b634e487b7160e01b600052603260045260246000fdfea2646970667358221220a4031cb103b6b0633809ae81f53dcb6221203bd28fbca4fe5bc918748ede8d6864736f6c63430008120033",
  "linkReferences": {},
  "deployedLinkReferences": {}
}